{
  "_format": "hh-sol-artifact-1",
  "contractName": "Wish",
  "sourceName": "contracts/Wish.sol",
  "abi": [
    {
      "inputs": [],
      "stateMutability": "payable",
      "type": "constructor"
    },
    {
      "inputs": [],
      "name": "getPrivateWishes",
      "outputs": [
        {
          "components": [
            {
              "internalType": "string",
              "name": "wish",
              "type": "string"
            },
            {
              "internalType": "uint32",
              "name": "timeStamp",
              "type": "uint32"
            },
            {
              "internalType": "uint16",
              "name": "isPrivate",
              "type": "uint16"
            }
          ],
          "internalType": "struct Wish.UserWish[]",
          "name": "",
          "type": "tuple[]"
        }
      ],
      "stateMutability": "view",
      "type": "function"
    },
    {
      "inputs": [],
      "name": "getPublicWishes",
      "outputs": [
        {
          "components": [
            {
              "internalType": "string",
              "name": "wish",
              "type": "string"
            },
            {
              "internalType": "uint32",
              "name": "timeStamp",
              "type": "uint32"
            },
            {
              "internalType": "uint16",
              "name": "isPrivate",
              "type": "uint16"
            }
          ],
          "internalType": "struct Wish.UserWish[]",
          "name": "",
          "type": "tuple[]"
        }
      ],
      "stateMutability": "view",
      "type": "function"
    },
    {
      "inputs": [
        {
          "internalType": "string",
          "name": "_wish",
          "type": "string"
        },
        {
          "internalType": "bool",
          "name": "_isPrivate",
          "type": "bool"
        }
      ],
      "name": "makeWish",
      "outputs": [],
      "stateMutability": "nonpayable",
      "type": "function"
    }
  ],
  "bytecode": "0x60806040526064426100119190610026565b600381905550610086565b6000819050919050565b60006100318261001c565b915061003c8361001c565b92508261004c5761004b610057565b5b828206905092915050565b7f4e487b7100000000000000000000000000000000000000000000000000000000600052601260045260246000fd5b611232806100956000396000f3fe608060405234801561001057600080fd5b50600436106100415760003560e01c80634c7750b2146100465780638a51293a14610062578063cd2d5ec614610080575b600080fd5b610060600480360381019061005b9190610b55565b61009e565b005b61006a6104ca565b6040516100779190610d53565b60405180910390f35b6100886106bd565b6040516100959190610d53565b60405180910390f35b61011d6040518060400160405280601881526020017f2573206c617374207570646174652074696d653a20256420000000000000000081525033600260003373ffffffffffffffffffffffffffffffffffffffff1673ffffffffffffffffffffffffffffffffffffffff16815260200190815260200160002054610838565b603c600260003373ffffffffffffffffffffffffffffffffffffffff1673ffffffffffffffffffffffffffffffffffffffff168152602001908152602001600020544261016a9190610f37565b11806101b557506000600260003373ffffffffffffffffffffffffffffffffffffffff1673ffffffffffffffffffffffffffffffffffffffff16815260200190815260200160002054145b6101f4576040517f08c379a00000000000000000000000000000000000000000000000000000000081526004016101eb90610e05565b60405180910390fd5b8015610339576000803373ffffffffffffffffffffffffffffffffffffffff1673ffffffffffffffffffffffffffffffffffffffff16815260200190815260200160002060405180606001604052808481526020014263ffffffff168152602001600161ffff16815250908060018154018082558091505060019003906000526020600020906002020160009091909190915060008201518160000190805190602001906102a3929190610a35565b5060208201518160010160006101000a81548163ffffffff021916908363ffffffff16021790555060408201518160010160046101000a81548161ffff021916908361ffff160217905550505042600260003373ffffffffffffffffffffffffffffffffffffffff1673ffffffffffffffffffffffffffffffffffffffff168152602001908152602001600020819055506104a6565b61037a6040518060400160405280601881526020017f63757272656e742072616e646f6d536565643a2025642e2000000000000000008152506003546108d7565b603c60035411156104a5576103a66040518060600160405280602281526020016111db60229139610973565b600160405180606001604052808481526020014263ffffffff168152602001600061ffff1681525090806001815401808255809150506001900390600052602060002090600202016000909190919091506000820151816000019080519060200190610413929190610a35565b5060208201518160010160006101000a81548163ffffffff021916908363ffffffff16021790555060408201518160010160046101000a81548161ffff021916908361ffff160217905550505042600260003373ffffffffffffffffffffffffffffffffffffffff1673ffffffffffffffffffffffffffffffffffffffff168152602001908152602001600020819055505b5b6064426003546104b69190610ee1565b6104c09190611076565b6003819055505050565b606061054c6040518060400160405280601e81526020017f43757272656e742070726976617465207769736820636f756e743a20256400008152506000803373ffffffffffffffffffffffffffffffffffffffff1673ffffffffffffffffffffffffffffffffffffffff168152602001908152602001600020805490506108d7565b6000803373ffffffffffffffffffffffffffffffffffffffff1673ffffffffffffffffffffffffffffffffffffffff168152602001908152602001600020805480602002602001604051908101604052809291908181526020016000905b828210156106b457838290600052602060002090600202016040518060600160405290816000820180546105dd90611013565b80601f016020809104026020016040519081016040528092919081815260200182805461060990611013565b80156106565780601f1061062b57610100808354040283529160200191610656565b820191906000526020600020905b81548152906001019060200180831161063957829003601f168201915b505050505081526020016001820160009054906101000a900463ffffffff1663ffffffff1663ffffffff1681526020016001820160049054906101000a900461ffff1661ffff1661ffff1681525050815260200190600101906105aa565b50505050905090565b60606107036040518060400160405280601d81526020017f43757272656e74207075626c6963207769736820636f756e743a2025640000008152506001805490506108d7565b6001805480602002602001604051908101604052809291908181526020016000905b8282101561082f578382906000526020600020906002020160405180606001604052908160008201805461075890611013565b80601f016020809104026020016040519081016040528092919081815260200182805461078490611013565b80156107d15780601f106107a6576101008083540402835291602001916107d1565b820191906000526020600020905b8154815290600101906020018083116107b457829003601f168201915b505050505081526020016001820160009054906101000a900463ffffffff1663ffffffff1663ffffffff1681526020016001820160049054906101000a900461ffff1661ffff1661ffff168152505081526020019060010190610725565b50505050905090565b6108d283838360405160240161085093929190610d97565b6040516020818303038152906040527f07c81217000000000000000000000000000000000000000000000000000000007bffffffffffffffffffffffffffffffffffffffffffffffffffffffff19166020820180517bffffffffffffffffffffffffffffffffffffffffffffffffffffffff8381831617835250505050610a0c565b505050565b61096f82826040516024016108ed929190610dd5565b6040516020818303038152906040527f9710a9d0000000000000000000000000000000000000000000000000000000007bffffffffffffffffffffffffffffffffffffffffffffffffffffffff19166020820180517bffffffffffffffffffffffffffffffffffffffffffffffffffffffff8381831617835250505050610a0c565b5050565b610a09816040516024016109879190610d75565b6040516020818303038152906040527f41304fac000000000000000000000000000000000000000000000000000000007bffffffffffffffffffffffffffffffffffffffffffffffffffffffff19166020820180517bffffffffffffffffffffffffffffffffffffffffffffffffffffffff8381831617835250505050610a0c565b50565b60008151905060006a636f6e736f6c652e6c6f679050602083016000808483855afa5050505050565b828054610a4190611013565b90600052602060002090601f016020900481019282610a635760008555610aaa565b82601f10610a7c57805160ff1916838001178555610aaa565b82800160010185558215610aaa579182015b82811115610aa9578251825591602001919060010190610a8e565b5b509050610ab79190610abb565b5090565b5b80821115610ad4576000816000905550600101610abc565b5090565b6000610aeb610ae684610e4a565b610e25565b905082815260208101848484011115610b0357600080fd5b610b0e848285610fd1565b509392505050565b600081359050610b25816111c3565b92915050565b600082601f830112610b3c57600080fd5b8135610b4c848260208601610ad8565b91505092915050565b60008060408385031215610b6857600080fd5b600083013567ffffffffffffffff811115610b8257600080fd5b610b8e85828601610b2b565b9250506020610b9f85828601610b16565b9150509250929050565b6000610bb58383610cd6565b905092915050565b610bc681610f6b565b82525050565b6000610bd782610e8b565b610be18185610eae565b935083602082028501610bf385610e7b565b8060005b85811015610c2f5784840389528151610c108582610ba9565b9450610c1b83610ea1565b925060208a01995050600181019050610bf7565b50829750879550505050505092915050565b6000610c4c82610e96565b610c568185610ebf565b9350610c66818560208601610fe0565b610c6f81611163565b840191505092915050565b6000610c8582610e96565b610c8f8185610ed0565b9350610c9f818560208601610fe0565b610ca881611163565b840191505092915050565b6000610cc0602583610ed0565b9150610ccb82611174565b604082019050919050565b60006060830160008301518482036000860152610cf38282610c41565b9150506020830151610d086020860182610d44565b506040830151610d1b6040860182610d26565b508091505092915050565b610d2f81610f89565b82525050565b610d3e81610fb7565b82525050565b610d4d81610fc1565b82525050565b60006020820190508181036000830152610d6d8184610bcc565b905092915050565b60006020820190508181036000830152610d8f8184610c7a565b905092915050565b60006060820190508181036000830152610db18186610c7a565b9050610dc06020830185610bbd565b610dcd6040830184610d35565b949350505050565b60006040820190508181036000830152610def8185610c7a565b9050610dfe6020830184610d35565b9392505050565b60006020820190508181036000830152610e1e81610cb3565b9050919050565b6000610e2f610e40565b9050610e3b8282611045565b919050565b6000604051905090565b600067ffffffffffffffff821115610e6557610e64611134565b5b610e6e82611163565b9050602081019050919050565b6000819050602082019050919050565b600081519050919050565b600081519050919050565b6000602082019050919050565b600082825260208201905092915050565b600082825260208201905092915050565b600082825260208201905092915050565b6000610eec82610fb7565b9150610ef783610fb7565b9250827fffffffffffffffffffffffffffffffffffffffffffffffffffffffffffffffff03821115610f2c57610f2b6110a7565b5b828201905092915050565b6000610f4282610fb7565b9150610f4d83610fb7565b925082821015610f6057610f5f6110a7565b5b828203905092915050565b6000610f7682610f97565b9050919050565b60008115159050919050565b600061ffff82169050919050565b600073ffffffffffffffffffffffffffffffffffffffff82169050919050565b6000819050919050565b600063ffffffff82169050919050565b82818337600083830152505050565b60005b83811015610ffe578082015181840152602081019050610fe3565b8381111561100d576000848401525b50505050565b6000600282049050600182168061102b57607f821691505b6020821081141561103f5761103e611105565b5b50919050565b61104e82611163565b810181811067ffffffffffffffff8211171561106d5761106c611134565b5b80604052505050565b600061108182610fb7565b915061108c83610fb7565b92508261109c5761109b6110d6565b5b828206905092915050565b7f4e487b7100000000000000000000000000000000000000000000000000000000600052601160045260246000fd5b7f4e487b7100000000000000000000000000000000000000000000000000000000600052601260045260246000fd5b7f4e487b7100000000000000000000000000000000000000000000000000000000600052602260045260246000fd5b7f4e487b7100000000000000000000000000000000000000000000000000000000600052604160045260246000fd5b6000601f19601f8301169050919050565b7f547269616c206c657373207468616e20776169742074696d65206f662031206d60008201527f696e757465000000000000000000000000000000000000000000000000000000602082015250565b6111cc81610f7d565b81146111d757600080fd5b5056fe7570646174696e67207075626c6963576973686573207769746820736565642e2e2ea264697066735822122030d7f3b408b0cf999d3ba54af9558cb56b7e57f30956bbe562649edf811be72664736f6c63430008010033",
  "linkReferences": {},
  "deployedLinkReferences": {}
}